S00C000050524A312E73726563FB
S113000071C0000082C00000A7C000007DC00000D5
S11300107BC0000079C0000077C0000075C00000FC
S113002073C0000071C000006FC000006DC000000C
S11300306BC0000069C0000067C0000065C000001C
S113004063C0000061C000005FC000005DC000002C
S11300505BC0000059C0000057C0000055C000003C
S113006053C0000051C000004FC000004DC000004C
S11300704BC0000049C0000047C0000045C000005C
S113008043C0000041C000003FC000003DC000006C
S11300903BC0000039C0000037C0000035C000007C
S11300A033C0000031C000002FC000002DC000008C
S11300B02BC0000029C0000027C0000025C000009C
S11300C023C0000021C000001FC000001DC00000AC
S11300D01BC0000019C0000017C0000015C00000BC
S11300E013C0000011241FBECFEFD1E2DEBFCDBF8D
S11300F000E00CBF22E0A0E0B2E001C01D92A130FC
S1130100B207E1F759D05AC07BCF1F920F920FB6B6
S11301100F9211242F938F939F93809100028F5FEE
S1130120809300028DB38C7F8DBB2FEF83ED90E322
S1130130215080409040E1F700C000008CB3836000
S11301408CBB8DB383608DBB9F918F912F910F904A
S11301500FBE0F901F9018951F920F920FB60F921B
S113016011242F938F939F93809100028F5F80932C
S113017000028DB38C7F8DBB2FEF83ED90E3215074
S113018080409040E1F700C000008CB383608CBBDA
S11301908DB383608DBB9F918F912F910F900FBE74
S11301A00F901F90189578941AB88DB383608DBB07
S11301B08FE0809369000895F6DFFFCFF894FFCFB6
S9030000FC
