S011000054657374536F756E642E737265636A
S113000071C0000079C0000077C0000075C0000016
S113001073C0000071C000006FC000006DC000001C
S11300206BC0000069C0000067C0000065C000002C
S113003063C0000061C000005FC000005DC000003C
S11300405BC0000059C0000057C0000055C000004C
S113005053C0000051C000004FC000004DC000005C
S11300604BC0000049C0000047C0000045C000006C
S113007043C0000041C000003FC000003DC000007C
S11300803BC0000039C0000037C0000035C000008C
S113009033C0000031C000002FC000002DC000009C
S11300A02BC0000029C0000027C0000025C00000AC
S11300B023C0000021C000001FC000001DC00000BC
S11300C01BC0000019C0000017C0000015C00000CC
S11300D013C0000011C000000FC000000DC00000DC
S11300E00BC0000011241FBECFEFD1E2DEBFCDBF95
S11300F000E00CBF02D0B1C083CF03D009D019D027
S1130100FFCF48E060E875E280E090E023C0089506
S11301108EE77AD086E078D080E076D080E074D024
S11301208EE172D08FEF70D08CED6ED08FEE6CC0FC
S113013008958EE769D083E067D080E065D080E0E1
S113014063D081E061D08FEF5FD08CEF5DD08FEE14
S11301505BC00895CF92DF92EF92FF920F931F93AB
S11301608B019C010C52114021093109053D104CB1
S11301702140310508F041C0453008F43EC0493003
S1130180E0F520E22093C00028E12093C10045500F
S1130190440F4093C2006B017C0120E8C20E24E8A6
S11301A0D21E2EE1E21EF11CCC0CDD1CEE1CFF1C49
S11301B0CC0CDD1CEE1CFF1CCC0CDD1CEE1CFF1C4F
S11301C0DC01CB01880F991FAA1FBB1F880F991F41
S11301D0AA1FBB1F9C01AD01220F331F441F551FD3
S11301E0220F331F441F551FC701B60114D02150DD
S11301F031093093C5002093C4001F910F91FF90E3
S1130200EF90DF90CF9008959091C00095FFFCCFC0
S11302108093C6000895A1E21A2EAA1BBB1BFD0100
S11302200DC0AA1FBB1FEE1FFF1FA217B307E407D1
S1130230F50720F0A21BB30BE40BF50B661F771F29
S1130240881F991F1A9469F7609570958095909509
S11102509B01AC01BD01CF010895F894FFCFCE
S9030000FC
