S01B000044726976696E67416C676F726974686D4361722E7372656379
S11300007CC00000AFC10000D4C1000095C0000056
S113001093C0000091C000008FC000008DC000009C
S11300208BC0000089C0000087C0000085C00000AC
S113003083C0000081C000007FC000007DC00000BC
S11300407BC0000079C0000077C0000075C00000CC
S113005073C0000071C000006FC0000053C10000F5
S11300606BC0000069C0000067C0000065C00000EC
S113007063C0000061C000005FC000005DC00000FC
S11300805BC0000059C0000057C0000055C000000C
S113009053C0000051C000004FC000004DC000001C
S11300A04BC0000049C0000047C0000045C000002C
S11300B043C0000041C000003FC000003DC000003C
S11300C03BC0000039C0000037C0000035C000004C
S11300D033C0000031C000002FC000002DC000005C
S11300E02BC00000AA00B200BA00C200CA00D200AD
S11300F0DB00E300EC00F400FC0011241FBECFEF92
S1130100D1E2DEBFCDBF00E00CBF12E0A0E0B2E060
S1130110EEEBF8E000E00BBF02C007900D92A230B6
S1130120B107D9F722E0A2E0B2E001C01D92AD30E0
S1130130B207E1F765D0C1C363CF62D190E0FC019F
S11301403197EB30F10508F05AC08827EE58FF4F7D
S11301508F4FABC382E09AD160E070E088EC92E408
S11301607AC0089581E092D160E070E086E992E47B
S1130170ADC0089581E08AD160E070E088EC92E43B
S1130180A5C0089581E082D160E070E088EC91E43C
S11301909DC0089581E07AD160E070E088EC92E43B
S11301A095C0089581E072D188D060E070E088EC59
S11301B092E46AC0089581E069D160E070E086E964
S11301C092E484C0089581E061D177D060E070E06A
S11301D088E492E440C0089581E058D160E070E082
S11301E088E492E438C0089581E050D160E070E082
S11301F088EC92E430C0089583E048D15EC008954D
S11302002FD17AD148E060E875E280E090E082D1B5
S113021067D093DFFECF20E030E048EC52E4DBD13E
S113022020E030E04FE753E4BBD2609302027093C6
S1130230030280930402909305020895813091058E
S113024021F485B1846085B90895892B19F485B1A9
S11302508B7F85B90895CF92DF92EF92FF926B0165
S11302607C0180E090E0EADFC701B601D4DF60934F
S11302700202709303028093040290930502FF909C
S1130280EF90DF90CF900895CF92DF92EF92FF929C
S11302906B017C0181E090E0D1DFC701B601BBDFD7
S11302A06093020270930302809304029093050208
S11302B0FF90EF90DF90CF90089510920202109279
S11302C0030210920402109205020895A4DF6093C1
S11302D0020270930302809304029093050208952E
S11302E0789484B1806884B984B1846084B984B515
S11302F0836884BDEEE6F0E080818160808389E0DC
S113030085BD08951F920F920FB60F9211240BB65C
S11303100F922F933F934F935F936F937F938F939A
S11303209F93AF93BF93EF93FF93609102027091F9
S113033003028091040290910502B5D167BDFF913B
S1130340EF91BF91AF919F918F917F916F915F9149
S11303504F913F912F910F900BBE0F900FBE0F90B6
S11303601F9018951F920F920FB60F9211242F937E
S11303708F939F93809106028F5F809306028DB3C3
S11303808C7F8DBB2FEF83ED90E321508040904014
S1130390E1F700C000008CB383608CBB8DB3836035
S11303A08DBB9F918F912F910F900FBE0F901F9037
S11303B018951F920F920FB60F9211242F938F93BB
S11303C09F93809106028F5F809306028DB38C7F8A
S11303D08DBB2FEF83ED90E3215080409040E1F7F7
S11303E000C000008CB383608CBB8DB383608DBB75
S11303F09F918F912F910F900FBE0F901F90189582
S113040080910602089596E090930C0210920B02DC
S113041010920A028093090290E0069691958195C4
S113042091099093010280930002909308028093B3
S113043007028EE7C9D080910C02C6D080910B02CE
S1130440C3D080910A02C0D080910902BDD08091AE
S11304500802BAD080910702B7D08FEEB5C00895D4
S11304604DD02FEF83ED90E3215080409040E1F791
S113047000C000008FE0C7DF2FEF83ED90E3215031
S113048080409040E1F700C00000089593E090930D
S11304900C0210920B0210920A028093090290E05F
S11304A0039691958195910990930102809300029E
S11304B090930802809307028EE786D080910C0205
S11304C083D080910B0280D080910A027DD08091EC
S11304D009027AD08091080277D08091070274D003
S11304E08FEE72D02FEF83ED90E321508040904047
S11304F0E1F700C00000089511B808951092C500F6
S113050087E68093C40088E08093C10086E08093EE
S1130510C2000895CF92DF92EF92FF920F931F9340
S11305208B019C010C52114021093109053D104CED
S11305302140310508F041C0453008F43EC049303F
S1130540E0F520E22093C00028E12093C10045504B
S1130550440F4093C2006B017C0120E8C20E24E8E2
S1130560D21E2EE1E21EF11CCC0CDD1CEE1CFF1C85
S1130570CC0CDD1CEE1CFF1CCC0CDD1CEE1CFF1C8B
S1130580DC01CB01880F991FAA1FBB1F880F991F7D
S1130590AA1FBB1F9C01AD01220F331F441F551F0F
S11305A0220F331F441F551FC701B6015CD12150D0
S11305B031093093C5002093C4001F910F91FF901F
S11305C0EF90DF90CF9008959091C00095FFFCCFFD
S11305D08093C60008950CD0A9C0A1D040F098D053
S11305E030F021F45F3F19F08AC05111D3C08DC09F
S11305F0AED098F39923C9F35523B1F3951B550B4A
S1130600BB27AA2762177307840738F09F5F5F4FE1
S1130610220F331F441FAA1FA9F333D00E2E3AF022
S1130620E0E830D091505040E695001CCAF729D03C
S1130630FE2F27D0660F771F881FBB1F261737078B
S11306404807AB07B0E809F0BB0B802DBF01FF27BB
S113065093585F4F2AF09E3F510568F050C09AC0EE
S11306605F3FECF3983EDCF3869577956795B795F5
S1130670F7959F5FC9F7880F911D9695879597F910
S11306800895E1E0660F771F881FBB1F6217730789
S11306908407BA0720F0621B730B840BBA0BEE1F9E
S11306A088F7E09508955BD088F09F5790F0B92FB4
S11306B09927B751A0F0D1F0660F771F881F991FB3
S11306C01AF0BA95C9F712C0B13081F062D0B1E026
S11306D008955FC0672F782F8827B85F39F0B93F36
S11306E0CCF3869577956795B395D9F73EF49095B5
S11306F08095709561957F4F8F4F9F4F089597F91F
S11307009F6780E870E060E008959FEF80EC0895B3
S113071000240A94161617061806090608950024DC
S11307200A9412161306140605060895092E039456
S1130730000C11F4882352F0BB0F40F4BF2B11F4CA
S113074060FF04C06F5F7F4F8F4F9F4F089557FD29
S11307509058440F551F59F05F3F71F04795880F2B
S113076097FB991F61F09F3F79F0879508951216C2
S113077013061406551FF2CF4695F1DF08C016166E
S113078017061806991FF1CF86957105610508941F
S11307900895E894BB2766277727CB0197F9089536
S11307A00BD0C4CFB5DF28F0BADF18F0952309F0D9
S11307B0A6CFABCF1124EECFCADFA0F3959FD1F320
S11307C0950F50E0551F629FF001729FBB27F00DFB
S11307D0B11D639FAA27F00DB11DAA1F649F662750
S11307E0B00DA11D661F829F2227B00DA11D621F9F
S11307F0739FB00DA11D621F839FA00D611D221F59
S1130800749F3327A00D611D231F849F600D211D3C
S1130810822F762F6A2F11249F5750408AF0E1F0DF
S113082088234AF0EE0FFF1FBB1F661F771F881F28
S113083091505040A9F79E3F510570F060CFAACF68
S11308405F3FECF3983EDCF3869577956795B79513
S1130850F795E7959F5FC1F7FE2B880F911D96953D
S1130860879597F90895A1E21A2EAA1BBB1BFD01D7
S11308700DC0AA1FBB1FEE1FFF1FA217B307E4077B
S1130880F50720F0A21BB30BE40BF50B661F771FD3
S1130890881F991F1A9469F76095709580959095B3
S11308A09B01AC01BD01CF010895EE0FFF1F881F0E
S11108B08BBF0790F691E02D1994F894FFCFBA
S10508BEFFFF36
S9030000FC
